{
  "contractName": "Election",
  "abi": [
    {
      "inputs": [],
      "payable": false,
      "stateMutability": "nonpayable",
      "type": "constructor"
    },
    {
      "anonymous": false,
      "inputs": [
        {
          "indexed": true,
          "internalType": "uint256",
          "name": "_candidate_id",
          "type": "uint256"
        }
      ],
      "name": "vote_cast",
      "type": "event"
    },
    {
      "constant": true,
      "inputs": [
        {
          "internalType": "uint256",
          "name": "",
          "type": "uint256"
        }
      ],
      "name": "candidates",
      "outputs": [
        {
          "internalType": "uint256",
          "name": "id",
          "type": "uint256"
        },
        {
          "internalType": "uint256",
          "name": "votes_recieved",
          "type": "uint256"
        },
        {
          "internalType": "string",
          "name": "name",
          "type": "string"
        }
      ],
      "payable": false,
      "stateMutability": "view",
      "type": "function"
    },
    {
      "constant": true,
      "inputs": [],
      "name": "candidates_count",
      "outputs": [
        {
          "internalType": "uint256",
          "name": "",
          "type": "uint256"
        }
      ],
      "payable": false,
      "stateMutability": "view",
      "type": "function"
    },
    {
      "constant": true,
      "inputs": [
        {
          "internalType": "address",
          "name": "",
          "type": "address"
        }
      ],
      "name": "voted",
      "outputs": [
        {
          "internalType": "bool",
          "name": "",
          "type": "bool"
        }
      ],
      "payable": false,
      "stateMutability": "view",
      "type": "function"
    },
    {
      "constant": true,
      "inputs": [
        {
          "internalType": "uint256",
          "name": "",
          "type": "uint256"
        }
      ],
      "name": "votes",
      "outputs": [
        {
          "internalType": "uint256",
          "name": "id",
          "type": "uint256"
        },
        {
          "internalType": "uint256",
          "name": "vote_time",
          "type": "uint256"
        },
        {
          "internalType": "string",
          "name": "candidate",
          "type": "string"
        }
      ],
      "payable": false,
      "stateMutability": "view",
      "type": "function"
    },
    {
      "constant": true,
      "inputs": [],
      "name": "votes_count",
      "outputs": [
        {
          "internalType": "uint256",
          "name": "",
          "type": "uint256"
        }
      ],
      "payable": false,
      "stateMutability": "view",
      "type": "function"
    },
    {
      "constant": false,
      "inputs": [
        {
          "internalType": "uint256",
          "name": "_candidate_id",
          "type": "uint256"
        }
      ],
      "name": "vote",
      "outputs": [],
      "payable": false,
      "stateMutability": "nonpayable",
      "type": "function"
    }
  ],
  "bytecode": "0x608060405260008055600060015534801561001957600080fd5b5061005e6040518060400160405280600b81526020017f43616e64696461746520410000000000000000000000000000000000000000008152506100a760201b60201c565b6100a26040518060400160405280600b81526020017f43616e64696461746520420000000000000000000000000000000000000000008152506100a760201b60201c565b6101c8565b6001600081548092919060010191905055506040518060600160405280600154815260200160008152602001828152506002600060015481526020019081526020016000206000820151816000015560208201518160010155604082015181600201908051906020019061011c929190610123565b5090505050565b828054600181600116156101000203166002900490600052602060002090601f016020900481019282601f1061016457805160ff1916838001178555610192565b82800160010185558215610192579182015b82811115610191578251825591602001919060010190610176565b5b50905061019f91906101a3565b5090565b6101c591905b808211156101c15760008160009055506001016101a9565b5090565b90565b610771806101d76000396000f3fe608060405234801561001057600080fd5b50600436106100625760003560e01c80630121b93f146100675780633477ee2e146100955780635df813301461014a578063a33d9077146101ff578063aec2ccae1461021d578063f94c4a5f14610279575b600080fd5b6100936004803603602081101561007d57600080fd5b8101908080359060200190929190505050610297565b005b6100c1600480360360208110156100ab57600080fd5b810190808035906020019092919050505061046e565b6040518084815260200183815260200180602001828103825283818151815260200191508051906020019080838360005b8381101561010d5780820151818401526020810190506100f2565b50505050905090810190601f16801561013a5780820380516001836020036101000a031916815260200191505b5094505050505060405180910390f35b6101766004803603602081101561016057600080fd5b8101908080359060200190929190505050610530565b6040518084815260200183815260200180602001828103825283818151815260200191508051906020019080838360005b838110156101c25780820151818401526020810190506101a7565b50505050905090810190601f1680156101ef5780820380516001836020036101000a031916815260200191505b5094505050505060405180910390f35b6102076105f2565b6040518082815260200191505060405180910390f35b61025f6004803603602081101561023357600080fd5b81019080803573ffffffffffffffffffffffffffffffffffffffff1690602001909291905050506105f8565b604051808215151515815260200191505060405180910390f35b610281610618565b6040518082815260200191505060405180910390f35b600460003373ffffffffffffffffffffffffffffffffffffffff1673ffffffffffffffffffffffffffffffffffffffff16815260200190815260200160002060009054906101000a900460ff16156102ee57600080fd5b60008111801561030057506001548111155b61030957600080fd5b6001600460003373ffffffffffffffffffffffffffffffffffffffff1673ffffffffffffffffffffffffffffffffffffffff16815260200190815260200160002060006101000a81548160ff021916908315150217905550610418600260008381526020019081526020016000206002018054600181600116156101000203166002900480601f01602080910402602001604051908101604052809291908181526020018280546001816001161561010002031660029004801561040e5780601f106103e35761010080835404028352916020019161040e565b820191906000526020600020905b8154815290600101906020018083116103f157829003601f168201915b505050505061061e565b6002600082815260200190815260200160002060010160008154809291906001019190505550807fa707093e8ce6c8c95a9522c4ec16f7669ea9abf8596d5abe91afc3555c6ecf5760405160405180910390a250565b6002602052806000526040600020600091509050806000015490806001015490806002018054600181600116156101000203166002900480601f0160208091040260200160405190810160405280929190818152602001828054600181600116156101000203166002900480156105265780601f106104fb57610100808354040283529160200191610526565b820191906000526020600020905b81548152906001019060200180831161050957829003601f168201915b5050505050905083565b6003602052806000526040600020600091509050806000015490806001015490806002018054600181600116156101000203166002900480601f0160208091040260200160405190810160405280929190818152602001828054600181600116156101000203166002900480156105e85780601f106105bd576101008083540402835291602001916105e8565b820191906000526020600020905b8154815290600101906020018083116105cb57829003601f168201915b5050505050905083565b60005481565b60046020528060005260406000206000915054906101000a900460ff1681565b60015481565b60008081548092919060010191905055506040518060600160405280600054815260200142815260200182815250600360008054815260200190815260200160002060008201518160000155602082015181600101556040820151816002019080519060200190610690929190610697565b5090505050565b828054600181600116156101000203166002900490600052602060002090601f016020900481019282601f106106d857805160ff1916838001178555610706565b82800160010185558215610706579182015b828111156107055782518255916020019190600101906106ea565b5b5090506107139190610717565b5090565b61073991905b8082111561073557600081600090555060010161071d565b5090565b9056fea265627a7a723158204751efbd610950e78898b390bcde46e431a64044d9ef1ae2186a8e0f6d766e4264736f6c63430005100032",
  "source": "pragma solidity ^0.5.0;\n\ncontract Election{\n    uint public votes_count=0; // Count of the total number of votes\n    uint public candidates_count=0; // Count of the total number of candidates\n    struct Vote{\n\tuint id; // Each vote has a unique ID\n\tuint vote_time; // Stores the time at which a vote was cast\n\tstring candidate; // stores the name of the candidate to whom the vote was cast\n    }\n    struct Candidate{\n\tuint id; // Each candidate has an ID\n\tuint votes_recieved; // Count of the number of votes received\n\tstring name; // Name of the candidate\n    }\n    event vote_cast(uint indexed _candidate_id); // Event triggered after a vote is cast using the vote method\n    mapping(uint => Candidate) public candidates; // List of all candidates\n    mapping(uint => Vote) public votes; // List of all votes\n    mapping(address => bool) public voted; // Used to keep track if a user has cast a vote\n    constructor() public{\n\tadd_candidate(\"Candidate A\");\n\tadd_candidate(\"Candidate B\");\n    }\n    function add_candidate(string memory _name) private{ // Candidate creation function\n\tcandidates_count++;\n\tcandidates[candidates_count]=Candidate(candidates_count,0,_name);\n    }\n    function vote(uint _candidate_id) public{ // Vote cast function\n\trequire(!voted[msg.sender]);\n\trequire(_candidate_id>0 && _candidate_id<=candidates_count);\n\tvoted[msg.sender]=true;\n\tadd_vote(candidates[_candidate_id].name);\n\tcandidates[_candidate_id].votes_recieved++;\n\temit vote_cast(_candidate_id);\n    }\n    function add_vote(string memory _candidate_name) private{ //\n\tvotes_count++;\n\tvotes[votes_count]=Vote(votes_count,now,_candidate_name);\n    }\n}\n",
  "sourcePath": "/home/kumarguru/Documents/Blockchain/simple_blockchain_nodejs/contracts/Election.sol",
  "compiler": {
    "name": "solc",
    "version": "0.5.16+commit.9c3226ce.Emscripten.clang"
  },
  "schemaVersion": "3.3.3",
  "updatedAt": "2021-04-11T19:16:43.887Z",
  "networkType": "ethereum",
  "devdoc": {
    "methods": {}
  },
  "userdoc": {
    "methods": {}
  }
}